{
  "_format": "hh-sol-artifact-1",
  "contractName": "TimeLockr",
  "sourceName": "contracts/TimeLockr.sol",
  "abi": [
    {
      "inputs": [],
      "stateMutability": "nonpayable",
      "type": "constructor"
    },
    {
      "inputs": [
        {
          "internalType": "address",
          "name": "user",
          "type": "address"
        },
        {
          "internalType": "uint256",
          "name": "timestamp",
          "type": "uint256"
        }
      ],
      "name": "EmptyMessage",
      "type": "error"
    },
    {
      "inputs": [
        {
          "internalType": "uint256",
          "name": "fee",
          "type": "uint256"
        },
        {
          "internalType": "uint256",
          "name": "amt",
          "type": "uint256"
        },
        {
          "internalType": "uint256",
          "name": "timestamp",
          "type": "uint256"
        }
      ],
      "name": "InsufficientFunds",
      "type": "error"
    },
    {
      "inputs": [
        {
          "internalType": "bytes32",
          "name": "messageId",
          "type": "bytes32"
        },
        {
          "internalType": "uint256",
          "name": "timestamp",
          "type": "uint256"
        }
      ],
      "name": "MessageNotFound",
      "type": "error"
    },
    {
      "inputs": [
        {
          "internalType": "bytes32",
          "name": "messageId",
          "type": "bytes32"
        },
        {
          "internalType": "uint256",
          "name": "timestamp",
          "type": "uint256"
        }
      ],
      "name": "MessageStillLocked",
      "type": "error"
    },
    {
      "inputs": [
        {
          "internalType": "uint256",
          "name": "timestamp",
          "type": "uint256"
        },
        {
          "internalType": "address",
          "name": "user",
          "type": "address"
        },
        {
          "internalType": "bytes32",
          "name": "messageId",
          "type": "bytes32"
        }
      ],
      "name": "UnauthorizedAccess",
      "type": "error"
    },
    {
      "anonymous": false,
      "inputs": [
        {
          "indexed": false,
          "internalType": "address",
          "name": "user",
          "type": "address"
        },
        {
          "indexed": false,
          "internalType": "uint256",
          "name": "timestamp",
          "type": "uint256"
        }
      ],
      "name": "AddedToWhitelist",
      "type": "event"
    },
    {
      "anonymous": false,
      "inputs": [
        {
          "indexed": false,
          "internalType": "uint256",
          "name": "prevFee",
          "type": "uint256"
        },
        {
          "indexed": false,
          "internalType": "uint256",
          "name": "fee",
          "type": "uint256"
        },
        {
          "indexed": false,
          "internalType": "uint256",
          "name": "timestamp",
          "type": "uint256"
        }
      ],
      "name": "FeeUpdated",
      "type": "event"
    },
    {
      "anonymous": false,
      "inputs": [
        {
          "indexed": true,
          "internalType": "address",
          "name": "user",
          "type": "address"
        },
        {
          "indexed": false,
          "internalType": "bytes32",
          "name": "messageId",
          "type": "bytes32"
        },
        {
          "indexed": false,
          "internalType": "uint256",
          "name": "timestamp",
          "type": "uint256"
        }
      ],
      "name": "MessageLocked",
      "type": "event"
    },
    {
      "anonymous": false,
      "inputs": [
        {
          "indexed": true,
          "internalType": "address",
          "name": "user",
          "type": "address"
        },
        {
          "indexed": false,
          "internalType": "uint256",
          "name": "timestamp",
          "type": "uint256"
        }
      ],
      "name": "MessageUnlocked",
      "type": "event"
    },
    {
      "anonymous": false,
      "inputs": [
        {
          "indexed": false,
          "internalType": "uint256",
          "name": "prevLockTime",
          "type": "uint256"
        },
        {
          "indexed": false,
          "internalType": "uint256",
          "name": "lockTime",
          "type": "uint256"
        },
        {
          "indexed": false,
          "internalType": "uint256",
          "name": "timestamp",
          "type": "uint256"
        }
      ],
      "name": "MinimumLockUpTimeUpdated",
      "type": "event"
    },
    {
      "anonymous": false,
      "inputs": [
        {
          "indexed": true,
          "internalType": "address",
          "name": "previousOwner",
          "type": "address"
        },
        {
          "indexed": true,
          "internalType": "address",
          "name": "newOwner",
          "type": "address"
        }
      ],
      "name": "OwnershipTransferred",
      "type": "event"
    },
    {
      "anonymous": false,
      "inputs": [
        {
          "indexed": false,
          "internalType": "address",
          "name": "user",
          "type": "address"
        },
        {
          "indexed": false,
          "internalType": "uint256",
          "name": "timestamp",
          "type": "uint256"
        }
      ],
      "name": "RemovedFromWhitelist",
      "type": "event"
    },
    {
      "inputs": [],
      "name": "FEE",
      "outputs": [
        {
          "internalType": "uint256",
          "name": "",
          "type": "uint256"
        }
      ],
      "stateMutability": "view",
      "type": "function"
    },
    {
      "inputs": [],
      "name": "MIN_LOCK_TIME_IN_SECONDS",
      "outputs": [
        {
          "internalType": "uint256",
          "name": "",
          "type": "uint256"
        }
      ],
      "stateMutability": "view",
      "type": "function"
    },
    {
      "inputs": [
        {
          "internalType": "address",
          "name": "_address",
          "type": "address"
        }
      ],
      "name": "addToWhitelist",
      "outputs": [],
      "stateMutability": "nonpayable",
      "type": "function"
    },
    {
      "inputs": [
        {
          "internalType": "address",
          "name": "_recipient",
          "type": "address"
        },
        {
          "internalType": "string",
          "name": "_message",
          "type": "string"
        },
        {
          "internalType": "uint256",
          "name": "_timeLocked",
          "type": "uint256"
        }
      ],
      "name": "lockMessage",
      "outputs": [],
      "stateMutability": "payable",
      "type": "function"
    },
    {
      "inputs": [
        {
          "internalType": "address",
          "name": "",
          "type": "address"
        },
        {
          "internalType": "uint256",
          "name": "",
          "type": "uint256"
        }
      ],
      "name": "messages",
      "outputs": [
        {
          "internalType": "bytes32",
          "name": "",
          "type": "bytes32"
        }
      ],
      "stateMutability": "view",
      "type": "function"
    },
    {
      "inputs": [],
      "name": "owner",
      "outputs": [
        {
          "internalType": "address",
          "name": "",
          "type": "address"
        }
      ],
      "stateMutability": "view",
      "type": "function"
    },
    {
      "inputs": [
        {
          "internalType": "address",
          "name": "_address",
          "type": "address"
        }
      ],
      "name": "removeFromWhitelist",
      "outputs": [],
      "stateMutability": "nonpayable",
      "type": "function"
    },
    {
      "inputs": [],
      "name": "renounceOwnership",
      "outputs": [],
      "stateMutability": "nonpayable",
      "type": "function"
    },
    {
      "inputs": [
        {
          "internalType": "address",
          "name": "newOwner",
          "type": "address"
        }
      ],
      "name": "transferOwnership",
      "outputs": [],
      "stateMutability": "nonpayable",
      "type": "function"
    },
    {
      "inputs": [
        {
          "internalType": "bytes32",
          "name": "_messageId",
          "type": "bytes32"
        }
      ],
      "name": "unlockMessage",
      "outputs": [],
      "stateMutability": "nonpayable",
      "type": "function"
    },
    {
      "inputs": [
        {
          "internalType": "uint256",
          "name": "_fee",
          "type": "uint256"
        }
      ],
      "name": "updateFee",
      "outputs": [],
      "stateMutability": "nonpayable",
      "type": "function"
    },
    {
      "inputs": [
        {
          "internalType": "uint256",
          "name": "_minimumLockTime",
          "type": "uint256"
        }
      ],
      "name": "updateMinimumLockTime",
      "outputs": [],
      "stateMutability": "nonpayable",
      "type": "function"
    },
    {
      "inputs": [
        {
          "internalType": "address",
          "name": "",
          "type": "address"
        }
      ],
      "name": "whitelist",
      "outputs": [
        {
          "internalType": "bool",
          "name": "",
          "type": "bool"
        }
      ],
      "stateMutability": "view",
      "type": "function"
    },
    {
      "inputs": [],
      "name": "withdrawBalance",
      "outputs": [],
      "stateMutability": "nonpayable",
      "type": "function"
    }
  ],
  "bytecode": "0x60806040526706f05b59d3b20000600155603c60025534801561002157600080fd5b5061003e61003361004360201b60201c565b61004b60201b60201c565b61010f565b600033905090565b60008060009054906101000a900473ffffffffffffffffffffffffffffffffffffffff169050816000806101000a81548173ffffffffffffffffffffffffffffffffffffffff021916908373ffffffffffffffffffffffffffffffffffffffff1602179055508173ffffffffffffffffffffffffffffffffffffffff168173ffffffffffffffffffffffffffffffffffffffff167f8be0079c531659141344cd1fd0a4f28419497f9722a3daafe3b4186f6b6457e060405160405180910390a35050565b6117b28061011e6000396000f3fe6080604052600436106100dd5760003560e01c80639b19251a1161007f578063e2e099fd11610059578063e2e099fd14610286578063e43252d7146102af578063e45c45ac146102d8578063f2fde38b146102f4576100dd565b80639b19251a146101e1578063c45d9bea1461021e578063c57981b51461025b576100dd565b8063715018a6116100bb578063715018a61461014d5780638ab1d681146101645780638da5cb5b1461018d5780639012c4a8146101b8576100dd565b80630f12fb71146100e25780635fd8c7101461010b578063692c883814610122575b600080fd5b3480156100ee57600080fd5b5061010960048036038101906101049190610f93565b61031d565b005b34801561011757600080fd5b5061012061036c565b005b34801561012e57600080fd5b506101376103c4565b6040516101449190610fcf565b60405180910390f35b34801561015957600080fd5b506101626103ca565b005b34801561017057600080fd5b5061018b60048036038101906101869190611048565b6103de565b005b34801561019957600080fd5b506101a261047a565b6040516101af9190611084565b60405180910390f35b3480156101c457600080fd5b506101df60048036038101906101da9190610f93565b6104a3565b005b3480156101ed57600080fd5b5061020860048036038101906102039190611048565b6104f2565b60405161021591906110ba565b60405180910390f35b34801561022a57600080fd5b50610245600480360381019061024091906110d5565b610512565b604051610252919061112e565b60405180910390f35b34801561026757600080fd5b50610270610543565b60405161027d9190610fcf565b60405180910390f35b34801561029257600080fd5b506102ad60048036038101906102a89190611175565b610549565b005b3480156102bb57600080fd5b506102d660048036038101906102d19190611048565b610815565b005b6102f260048036038101906102ed9190611207565b6108b1565b005b34801561030057600080fd5b5061031b60048036038101906103169190611048565b610c50565b005b610325610cd4565b7f296b737099f152c0444895e62667297b0e4a9f910574417fec5ab83b3186e2e6600254824260405161035a9392919061127b565b60405180910390a18060028190555050565b610374610cd4565b61037c61047a565b73ffffffffffffffffffffffffffffffffffffffff166108fc479081150290604051600060405180830381858888f193505050501580156103c1573d6000803e3d6000fd5b50565b60025481565b6103d2610cd4565b6103dc6000610d52565b565b6103e6610cd4565b6000600360008373ffffffffffffffffffffffffffffffffffffffff1673ffffffffffffffffffffffffffffffffffffffff16815260200190815260200160002060006101000a81548160ff0219169083151502179055507f031e2f7b58119201ea1f3c2d1070d142de895fa9e98f585672341d0973c8d00a814260405161046f9291906112b2565b60405180910390a150565b60008060009054906101000a900473ffffffffffffffffffffffffffffffffffffffff16905090565b6104ab610cd4565b7f509d432c4ab40e3eb039ee95fea93be8de6c751efa87aed5e51c7202b0dd8e0960015482426040516104e09392919061127b565b60405180910390a18060018190555050565b60036020528060005260406000206000915054906101000a900460ff1681565b6005602052816000526040600020818154811061052e57600080fd5b90600052602060002001600091509150505481565b60015481565b6000600460003373ffffffffffffffffffffffffffffffffffffffff1673ffffffffffffffffffffffffffffffffffffffff16815260200190815260200160002060008381526020019081526020016000206040518060600160405290816000820180546105b69061130a565b80601f01602080910402602001604051908101604052809291908181526020018280546105e29061130a565b801561062f5780601f106106045761010080835404028352916020019161062f565b820191906000526020600020905b81548152906001019060200180831161061257829003601f168201915b50505050508152602001600182015481526020016002820160009054906101000a900473ffffffffffffffffffffffffffffffffffffffff1673ffffffffffffffffffffffffffffffffffffffff1673ffffffffffffffffffffffffffffffffffffffff1681525050905042816020015111156106e55781426040517f767bf1640000000000000000000000000000000000000000000000000000000081526004016106dc92919061133c565b60405180910390fd5b806040015173ffffffffffffffffffffffffffffffffffffffff163373ffffffffffffffffffffffffffffffffffffffff161461075d574233836040517f9584c14500000000000000000000000000000000000000000000000000000000815260040161075493929190611365565b60405180910390fd5b3373ffffffffffffffffffffffffffffffffffffffff167f66c9fe588b65637a29218efbea70a5f4deca1db14293aae770a5829378f43fea426040516107a39190610fcf565b60405180910390a2600560003373ffffffffffffffffffffffffffffffffffffffff1673ffffffffffffffffffffffffffffffffffffffff1681526020019081526020016000208290806001815401808255809150506001900390600052602060002001600090919091909150555050565b61081d610cd4565b6001600360008373ffffffffffffffffffffffffffffffffffffffff1673ffffffffffffffffffffffffffffffffffffffff16815260200190815260200160002060006101000a81548160ff0219169083151502179055507f62c1e066774519db9fe35767c15fc33df2f016675b7cc0c330ed185f286a2d5281426040516108a69291906112b2565b60405180910390a150565b600073ffffffffffffffffffffffffffffffffffffffff168473ffffffffffffffffffffffffffffffffffffffff161415610921576040517f08c379a0000000000000000000000000000000000000000000000000000000008152600401610918906113f9565b60405180910390fd5b3073ffffffffffffffffffffffffffffffffffffffff168473ffffffffffffffffffffffffffffffffffffffff161415610990576040517f08c379a00000000000000000000000000000000000000000000000000000000081526004016109879061148b565b60405180910390fd5b6000600360003373ffffffffffffffffffffffffffffffffffffffff1673ffffffffffffffffffffffffffffffffffffffff16815260200190815260200160002060009054906101000a900460ff16905060006109ed8383610e16565b905080341015610a38578034426040517ff5623b72000000000000000000000000000000000000000000000000000000008152600401610a2f9392919061127b565b60405180910390fd5b6000858590501415610a835785426040517fc655a763000000000000000000000000000000000000000000000000000000008152600401610a7a9291906112b2565b60405180910390fd5b60008633428888604051602001610a9e959493929190611553565b604051602081830303815290604052805190602001209050604051806060016040528087878080601f016020809104026020016040519081016040528093929190818152602001838380828437600081840152601f19601f8201169050808301925050505050505081526020018542610b1791906115ce565b81526020018873ffffffffffffffffffffffffffffffffffffffff16815250600460008973ffffffffffffffffffffffffffffffffffffffff1673ffffffffffffffffffffffffffffffffffffffff16815260200190815260200160002060008381526020019081526020016000206000820151816000019080519060200190610ba2929190610eb0565b506020820151816001015560408201518160020160006101000a81548173ffffffffffffffffffffffffffffffffffffffff021916908373ffffffffffffffffffffffffffffffffffffffff1602179055509050508673ffffffffffffffffffffffffffffffffffffffff167f90051fcb8828d27da97e0ad9d7a33d72b6de356a55dbf09b5b22e930e0b57d738242604051610c3f92919061133c565b60405180910390a250505050505050565b610c58610cd4565b600073ffffffffffffffffffffffffffffffffffffffff168173ffffffffffffffffffffffffffffffffffffffff161415610cc8576040517f08c379a0000000000000000000000000000000000000000000000000000000008152600401610cbf90611696565b60405180910390fd5b610cd181610d52565b50565b610cdc610ea8565b73ffffffffffffffffffffffffffffffffffffffff16610cfa61047a565b73ffffffffffffffffffffffffffffffffffffffff1614610d50576040517f08c379a0000000000000000000000000000000000000000000000000000000008152600401610d4790611702565b60405180910390fd5b565b60008060009054906101000a900473ffffffffffffffffffffffffffffffffffffffff169050816000806101000a81548173ffffffffffffffffffffffffffffffffffffffff021916908373ffffffffffffffffffffffffffffffffffffffff1602179055508173ffffffffffffffffffffffffffffffffffffffff168173ffffffffffffffffffffffffffffffffffffffff167f8be0079c531659141344cd1fd0a4f28419497f9722a3daafe3b4186f6b6457e060405160405180910390a35050565b600080600154905082158015610e5f5750610e2f61047a565b73ffffffffffffffffffffffffffffffffffffffff163373ffffffffffffffffffffffffffffffffffffffff1614155b15610e9e57620151808411610e75576000610e90565b6703782dace9d900006201518085901c610e8f9190611722565b5b81610e9b91906115ce565b90505b8091505092915050565b600033905090565b828054610ebc9061130a565b90600052602060002090601f016020900481019282610ede5760008555610f25565b82601f10610ef757805160ff1916838001178555610f25565b82800160010185558215610f25579182015b82811115610f24578251825591602001919060010190610f09565b5b509050610f329190610f36565b5090565b5b80821115610f4f576000816000905550600101610f37565b5090565b600080fd5b600080fd5b6000819050919050565b610f7081610f5d565b8114610f7b57600080fd5b50565b600081359050610f8d81610f67565b92915050565b600060208284031215610fa957610fa8610f53565b5b6000610fb784828501610f7e565b91505092915050565b610fc981610f5d565b82525050565b6000602082019050610fe46000830184610fc0565b92915050565b600073ffffffffffffffffffffffffffffffffffffffff82169050919050565b600061101582610fea565b9050919050565b6110258161100a565b811461103057600080fd5b50565b6000813590506110428161101c565b92915050565b60006020828403121561105e5761105d610f53565b5b600061106c84828501611033565b91505092915050565b61107e8161100a565b82525050565b60006020820190506110996000830184611075565b92915050565b60008115159050919050565b6110b48161109f565b82525050565b60006020820190506110cf60008301846110ab565b92915050565b600080604083850312156110ec576110eb610f53565b5b60006110fa85828601611033565b925050602061110b85828601610f7e565b9150509250929050565b6000819050919050565b61112881611115565b82525050565b6000602082019050611143600083018461111f565b92915050565b61115281611115565b811461115d57600080fd5b50565b60008135905061116f81611149565b92915050565b60006020828403121561118b5761118a610f53565b5b600061119984828501611160565b91505092915050565b600080fd5b600080fd5b600080fd5b60008083601f8401126111c7576111c66111a2565b5b8235905067ffffffffffffffff8111156111e4576111e36111a7565b5b602083019150836001820283011115611200576111ff6111ac565b5b9250929050565b6000806000806060858703121561122157611220610f53565b5b600061122f87828801611033565b945050602085013567ffffffffffffffff8111156112505761124f610f58565b5b61125c878288016111b1565b9350935050604061126f87828801610f7e565b91505092959194509250565b60006060820190506112906000830186610fc0565b61129d6020830185610fc0565b6112aa6040830184610fc0565b949350505050565b60006040820190506112c76000830185611075565b6112d46020830184610fc0565b9392505050565b7f4e487b7100000000000000000000000000000000000000000000000000000000600052602260045260246000fd5b6000600282049050600182168061132257607f821691505b60208210811415611336576113356112db565b5b50919050565b6000604082019050611351600083018561111f565b61135e6020830184610fc0565b9392505050565b600060608201905061137a6000830186610fc0565b6113876020830185611075565b611394604083018461111f565b949350505050565b600082825260208201905092915050565b7f496e76616c696420757365722061646472657373000000000000000000000000600082015250565b60006113e360148361139c565b91506113ee826113ad565b602082019050919050565b60006020820190508181036000830152611412816113d6565b9050919050565b7f526563697069656e7420616464726573732063616e6e6f74206265207468652060008201527f636f6e7472616374206164647265737300000000000000000000000000000000602082015250565b600061147560308361139c565b915061148082611419565b604082019050919050565b600060208201905081810360008301526114a481611468565b9050919050565b60008160601b9050919050565b60006114c3826114ab565b9050919050565b60006114d5826114b8565b9050919050565b6114ed6114e88261100a565b6114ca565b82525050565b6000819050919050565b61150e61150982610f5d565b6114f3565b82525050565b600081905092915050565b82818337600083830152505050565b600061153a8385611514565b935061154783858461151f565b82840190509392505050565b600061155f82886114dc565b60148201915061156f82876114dc565b60148201915061157f82866114fd565b60208201915061159082848661152e565b91508190509695505050505050565b7f4e487b7100000000000000000000000000000000000000000000000000000000600052601160045260246000fd5b60006115d982610f5d565b91506115e483610f5d565b9250827fffffffffffffffffffffffffffffffffffffffffffffffffffffffffffffffff038211156116195761161861159f565b5b828201905092915050565b7f4f776e61626c653a206e6577206f776e657220697320746865207a65726f206160008201527f6464726573730000000000000000000000000000000000000000000000000000602082015250565b600061168060268361139c565b915061168b82611624565b604082019050919050565b600060208201905081810360008301526116af81611673565b9050919050565b7f4f776e61626c653a2063616c6c6572206973206e6f7420746865206f776e6572600082015250565b60006116ec60208361139c565b91506116f7826116b6565b602082019050919050565b6000602082019050818103600083015261171b816116df565b9050919050565b600061172d82610f5d565b915061173883610f5d565b9250817fffffffffffffffffffffffffffffffffffffffffffffffffffffffffffffffff04831182151516156117715761177061159f565b5b82820290509291505056fea2646970667358221220a74b702928d97009ebe6984ca46dfc94e53d4dd66e90712243dcd2e8a62de00f64736f6c63430008090033",
  "linkReferences": {},
  "deployedLinkReferences": {}
}